{
  "_format": "hh-sol-artifact-1",
  "contractName": "PatreonRegistry",
  "sourceName": "contracts/PatreonRegistry.sol",
  "abi": [
    {
      "anonymous": false,
      "inputs": [
        {
          "indexed": true,
          "internalType": "address",
          "name": "owner",
          "type": "address"
        },
        {
          "indexed": true,
          "internalType": "address",
          "name": "patreon",
          "type": "address"
        },
        {
          "indexed": true,
          "internalType": "uint256",
          "name": "createdAt",
          "type": "uint256"
        },
        {
          "indexed": false,
          "internalType": "string",
          "name": "description",
          "type": "string"
        }
      ],
      "name": "CreatePatreon",
      "type": "event"
    },
    {
      "inputs": [
        {
          "internalType": "uint256",
          "name": "_subscriptionFee",
          "type": "uint256"
        },
        {
          "internalType": "uint256",
          "name": "_subscriptionPeriod",
          "type": "uint256"
        },
        {
          "internalType": "string",
          "name": "_description",
          "type": "string"
        }
      ],
      "name": "createPatreon",
      "outputs": [
        {
          "internalType": "address",
          "name": "",
          "type": "address"
        }
      ],
      "stateMutability": "nonpayable",
      "type": "function"
    },
    {
      "inputs": [
        {
          "internalType": "address",
          "name": "owner",
          "type": "address"
        }
      ],
      "name": "getPatreonsForOwner",
      "outputs": [
        {
          "internalType": "address[]",
          "name": "",
          "type": "address[]"
        }
      ],
      "stateMutability": "view",
      "type": "function"
    },
    {
      "inputs": [
        {
          "internalType": "address",
          "name": "subscriber",
          "type": "address"
        }
      ],
      "name": "getPatreonsForSubscriber",
      "outputs": [
        {
          "internalType": "address[]",
          "name": "",
          "type": "address[]"
        }
      ],
      "stateMutability": "view",
      "type": "function"
    },
    {
      "inputs": [
        {
          "internalType": "address",
          "name": "",
          "type": "address"
        }
      ],
      "name": "isPatreonContract",
      "outputs": [
        {
          "internalType": "bool",
          "name": "",
          "type": "bool"
        }
      ],
      "stateMutability": "view",
      "type": "function"
    },
    {
      "inputs": [],
      "name": "numPatreons",
      "outputs": [
        {
          "internalType": "uint256",
          "name": "",
          "type": "uint256"
        }
      ],
      "stateMutability": "view",
      "type": "function"
    },
    {
      "inputs": [
        {
          "internalType": "address",
          "name": "subscriber",
          "type": "address"
        }
      ],
      "name": "registerPatreonSubscription",
      "outputs": [],
      "stateMutability": "nonpayable",
      "type": "function"
    }
  ],
  "bytecode": "0x608060405234801561001057600080fd5b50612f0b806100206000396000f3fe60806040523480156200001157600080fd5b50600436106200006a5760003560e01c806303f6295d146200006f5780631d0e57d114620000a557806333ce7b4314620000db5780635af5864714620001115780635c808c0a1462000147578063c404441c1462000167575b600080fd5b6200008d600480360381019062000087919062000905565b62000189565b6040516200009c919062000b65565b60405180910390f35b620000c36004803603810190620000bd919062000905565b620001a9565b604051620000d2919062000b41565b60405180910390f35b620000f96004803603810190620000f3919062000931565b62000278565b60405162000108919062000ad0565b60405180910390f35b6200012f600480360381019062000129919062000905565b6200052c565b6040516200013e919062000b41565b60405180910390f35b6200016560048036038101906200015f919062000905565b620005fb565b005b6200017162000851565b60405162000180919062000bc8565b60405180910390f35b60006020528060005260406000206000915054906101000a900460ff1681565b6060600360008373ffffffffffffffffffffffffffffffffffffffff1673ffffffffffffffffffffffffffffffffffffffff1681526020019081526020016000208054806020026020016040519081016040528092919081815260200182805480156200026c57602002820191906000526020600020905b8160009054906101000a900473ffffffffffffffffffffffffffffffffffffffff1673ffffffffffffffffffffffffffffffffffffffff168152602001906001019080831162000221575b50505050509050919050565b600080308585856040516200028d9062000857565b6200029c949392919062000aed565b604051809103906000f080158015620002b9573d6000803e3d6000fd5b50905060016000808373ffffffffffffffffffffffffffffffffffffffff1673ffffffffffffffffffffffffffffffffffffffff16815260200190815260200160002060006101000a81548160ff0219169083151502179055506000600260003373ffffffffffffffffffffffffffffffffffffffff1673ffffffffffffffffffffffffffffffffffffffff168152602001908152602001600020905080829080600181540180825580915050600190039060005260206000200160009091909190916101000a81548173ffffffffffffffffffffffffffffffffffffffff021916908373ffffffffffffffffffffffffffffffffffffffff1602179055506001806000828254620003cc919062000c99565b925050819055508173ffffffffffffffffffffffffffffffffffffffff1663f2fde38b336040518263ffffffff1660e01b81526004016200040e919062000ad0565b600060405180830381600087803b1580156200042957600080fd5b505af11580156200043e573d6000803e3d6000fd5b5050505042816001838054905062000457919062000cf6565b815481106200048f577f4e487b7100000000000000000000000000000000000000000000000000000000600052603260045260246000fd5b9060005260206000200160009054906101000a900473ffffffffffffffffffffffffffffffffffffffff1673ffffffffffffffffffffffffffffffffffffffff163373ffffffffffffffffffffffffffffffffffffffff167f5f0f2e6e55f0e7334c0c8f49e51a0972041031c13bbe0f8f919ac73fe0ec97a78760405162000518919062000b82565b60405180910390a481925050509392505050565b6060600260008373ffffffffffffffffffffffffffffffffffffffff1673ffffffffffffffffffffffffffffffffffffffff168152602001908152602001600020805480602002602001604051908101604052809291908181526020018280548015620005ef57602002820191906000526020600020905b8160009054906101000a900473ffffffffffffffffffffffffffffffffffffffff1673ffffffffffffffffffffffffffffffffffffffff1681526020019060010190808311620005a4575b50505050509050919050565b6000803373ffffffffffffffffffffffffffffffffffffffff1673ffffffffffffffffffffffffffffffffffffffff16815260200190815260200160002060009054906101000a900460ff1662000689576040517f08c379a0000000000000000000000000000000000000000000000000000000008152600401620006809062000ba6565b60405180910390fd5b600460008273ffffffffffffffffffffffffffffffffffffffff1673ffffffffffffffffffffffffffffffffffffffff16815260200190815260200160002060003373ffffffffffffffffffffffffffffffffffffffff1673ffffffffffffffffffffffffffffffffffffffff16815260200190815260200160002060009054906101000a900460ff166200084e57600360008273ffffffffffffffffffffffffffffffffffffffff1673ffffffffffffffffffffffffffffffffffffffff168152602001908152602001600020339080600181540180825580915050600190039060005260206000200160009091909190916101000a81548173ffffffffffffffffffffffffffffffffffffffff021916908373ffffffffffffffffffffffffffffffffffffffff1602179055506001600460008373ffffffffffffffffffffffffffffffffffffffff1673ffffffffffffffffffffffffffffffffffffffff16815260200190815260200160002060003373ffffffffffffffffffffffffffffffffffffffff1673ffffffffffffffffffffffffffffffffffffffff16815260200190815260200160002060006101000a81548160ff0219169083151502179055505b50565b60015481565b611fed8062000ee983390190565b60006200087c620008768462000c0e565b62000be5565b9050828152602081018484840111156200089557600080fd5b620008a284828562000d7b565b509392505050565b600081359050620008bb8162000eb4565b92915050565b600082601f830112620008d357600080fd5b8135620008e584826020860162000865565b91505092915050565b600081359050620008ff8162000ece565b92915050565b6000602082840312156200091857600080fd5b60006200092884828501620008aa565b91505092915050565b6000806000606084860312156200094757600080fd5b60006200095786828701620008ee565b93505060206200096a86828701620008ee565b925050604084013567ffffffffffffffff8111156200098857600080fd5b6200099686828701620008c1565b9150509250925092565b6000620009ae8383620009ba565b60208301905092915050565b620009c58162000d31565b82525050565b620009d68162000d31565b82525050565b6000620009e98262000c54565b620009f5818562000c77565b935062000a028362000c44565b8060005b8381101562000a3957815162000a1d8882620009a0565b975062000a2a8362000c6a565b92505060018101905062000a06565b5085935050505092915050565b62000a518162000d45565b82525050565b600062000a648262000c5f565b62000a70818562000c88565b935062000a8281856020860162000d8a565b62000a8d8162000e54565b840191505092915050565b600062000aa760388362000c88565b915062000ab48262000e65565b604082019050919050565b62000aca8162000d71565b82525050565b600060208201905062000ae76000830184620009cb565b92915050565b600060808201905062000b046000830187620009cb565b62000b13602083018662000abf565b62000b22604083018562000abf565b818103606083015262000b36818462000a57565b905095945050505050565b6000602082019050818103600083015262000b5d8184620009dc565b905092915050565b600060208201905062000b7c600083018462000a46565b92915050565b6000602082019050818103600083015262000b9e818462000a57565b905092915050565b6000602082019050818103600083015262000bc18162000a98565b9050919050565b600060208201905062000bdf600083018462000abf565b92915050565b600062000bf162000c04565b905062000bff828262000dc0565b919050565b6000604051905090565b600067ffffffffffffffff82111562000c2c5762000c2b62000e25565b5b62000c378262000e54565b9050602081019050919050565b6000819050602082019050919050565b600081519050919050565b600081519050919050565b6000602082019050919050565b600082825260208201905092915050565b600082825260208201905092915050565b600062000ca68262000d71565b915062000cb38362000d71565b9250827fffffffffffffffffffffffffffffffffffffffffffffffffffffffffffffffff0382111562000ceb5762000cea62000df6565b5b828201905092915050565b600062000d038262000d71565b915062000d108362000d71565b92508282101562000d265762000d2562000df6565b5b828203905092915050565b600062000d3e8262000d51565b9050919050565b60008115159050919050565b600073ffffffffffffffffffffffffffffffffffffffff82169050919050565b6000819050919050565b82818337600083830152505050565b60005b8381101562000daa57808201518184015260208101905062000d8d565b8381111562000dba576000848401525b50505050565b62000dcb8262000e54565b810181811067ffffffffffffffff8211171562000ded5762000dec62000e25565b5b80604052505050565b7f4e487b7100000000000000000000000000000000000000000000000000000000600052601160045260246000fd5b7f4e487b7100000000000000000000000000000000000000000000000000000000600052604160045260246000fd5b6000601f19601f8301169050919050565b7f4f6e6c7920726567697374657265642050617472656f6e20636f6e747261637460008201527f732063616e2063616c6c20746869732066756e6374696f6e0000000000000000602082015250565b62000ebf8162000d31565b811462000ecb57600080fd5b50565b62000ed98162000d71565b811462000ee557600080fd5b5056fe60806040523480156200001157600080fd5b5060405162001fed38038062001fed8339818101604052810190620000379190620002e5565b620000576200004b620000c960201b60201c565b620000d160201b60201c565b83600660006101000a81548173ffffffffffffffffffffffffffffffffffffffff021916908373ffffffffffffffffffffffffffffffffffffffff16021790555082600181905550816002819055508060059080519060200190620000be92919062000195565b50505050506200054c565b600033905090565b60008060009054906101000a900473ffffffffffffffffffffffffffffffffffffffff169050816000806101000a81548173ffffffffffffffffffffffffffffffffffffffff021916908373ffffffffffffffffffffffffffffffffffffffff1602179055508173ffffffffffffffffffffffffffffffffffffffff168173ffffffffffffffffffffffffffffffffffffffff167f8be0079c531659141344cd1fd0a4f28419497f9722a3daafe3b4186f6b6457e060405160405180910390a35050565b828054620001a3906200043d565b90600052602060002090601f016020900481019282620001c7576000855562000213565b82601f10620001e257805160ff191683800117855562000213565b8280016001018555821562000213579182015b8281111562000212578251825591602001919060010190620001f5565b5b50905062000222919062000226565b5090565b5b808211156200024157600081600090555060010162000227565b5090565b60006200025c620002568462000393565b6200036a565b9050828152602081018484840111156200027557600080fd5b6200028284828562000407565b509392505050565b6000815190506200029b8162000518565b92915050565b600082601f830112620002b357600080fd5b8151620002c584826020860162000245565b91505092915050565b600081519050620002df8162000532565b92915050565b60008060008060808587031215620002fc57600080fd5b60006200030c878288016200028a565b94505060206200031f87828801620002ce565b93505060406200033287828801620002ce565b925050606085015167ffffffffffffffff8111156200035057600080fd5b6200035e87828801620002a1565b91505092959194509250565b60006200037662000389565b905062000384828262000473565b919050565b6000604051905090565b600067ffffffffffffffff821115620003b157620003b0620004d8565b5b620003bc8262000507565b9050602081019050919050565b6000620003d682620003dd565b9050919050565b600073ffffffffffffffffffffffffffffffffffffffff82169050919050565b6000819050919050565b60005b83811015620004275780820151818401526020810190506200040a565b8381111562000437576000848401525b50505050565b600060028204905060018216806200045657607f821691505b602082108114156200046d576200046c620004a9565b5b50919050565b6200047e8262000507565b810181811067ffffffffffffffff82111715620004a0576200049f620004d8565b5b80604052505050565b7f4e487b7100000000000000000000000000000000000000000000000000000000600052602260045260246000fd5b7f4e487b7100000000000000000000000000000000000000000000000000000000600052604160045260246000fd5b6000601f19601f8301169050919050565b6200052381620003c9565b81146200052f57600080fd5b50565b6200053d81620003fd565b81146200054957600080fd5b50565b611a91806200055c6000396000f3fe6080604052600436106100dd5760003560e01c80638da5cb5b1161007f578063e2c41dbc11610059578063e2c41dbc14610269578063ef352bbe14610273578063f2fde38b1461029e578063fcae4484146102c7576100dd565b80638da5cb5b146102095780638f449a0514610234578063bedcf0031461023e576100dd565b80632e1a7d4d116100bb5780632e1a7d4d146101615780635abf38381461018a578063715018a6146101c75780637284e416146101de576100dd565b80630aa0a175146100e25780630ca2822c1461010d57806320535ff014610138575b600080fd5b3480156100ee57600080fd5b506100f76102de565b6040516101049190611673565b60405180910390f35b34801561011957600080fd5b506101226102e4565b60405161012f9190611673565b60405180910390f35b34801561014457600080fd5b5061015f600480360381019061015a919061130e565b6102ea565b005b34801561016d57600080fd5b5061018860048036038101906101839190611353565b610652565b005b34801561019657600080fd5b506101b160048036038101906101ac91906112e5565b6106a8565b6040516101be9190611658565b60405180910390f35b3480156101d357600080fd5b506101dc61073a565b005b3480156101ea57600080fd5b506101f36107c2565b6040516102009190611556565b60405180910390f35b34801561021557600080fd5b5061021e610850565b60405161022b919061153b565b60405180910390f35b61023c610879565b005b34801561024a57600080fd5b50610253610b3c565b6040516102609190611673565b60405180910390f35b610271610b42565b005b34801561027f57600080fd5b50610288610c2c565b6040516102959190611673565b60405180910390f35b3480156102aa57600080fd5b506102c560048036038101906102c091906112e5565b610c32565b005b3480156102d357600080fd5b506102dc610d2a565b005b60015481565b60025481565b6102f2610e99565b73ffffffffffffffffffffffffffffffffffffffff16610310610850565b73ffffffffffffffffffffffffffffffffffffffff1614610366576040517f08c379a000000000000000000000000000000000000000000000000000000000815260040161035d906115d8565b60405180910390fd5b60005b8282905081101561064d576000600760008585858181106103b3577f4e487b7100000000000000000000000000000000000000000000000000000000600052603260045260246000fd5b90506020020160208101906103c891906112e5565b73ffffffffffffffffffffffffffffffffffffffff1673ffffffffffffffffffffffffffffffffffffffff16815260200190815260200160002090508060020160009054906101000a900460ff161580610432575042600254826003015461043091906116aa565b115b1561043d5750610639565b6000816001015490506001548260010154101561055857806003600082825461046691906116aa565b925050819055506000826001018190555060008260020160006101000a81548160ff0219169083151502179055504282600301819055506001600460008282546104b09190611700565b92505081905550428585858181106104f1577f4e487b7100000000000000000000000000000000000000000000000000000000600052603260045260246000fd5b905060200201602081019061050691906112e5565b73ffffffffffffffffffffffffffffffffffffffff167fc42c5faa85218715adf6a72c1ddd74e9161aeb244a6a01d9c619643327c78d7a8360405161054b9190611673565b60405180910390a361059a565b6001546003600082825461056c91906116aa565b925050819055506001548260010160008282546105899190611700565b925050819055504282600301819055505b428585858181106105d4577f4e487b7100000000000000000000000000000000000000000000000000000000600052603260045260246000fd5b90506020020160208101906105e991906112e5565b73ffffffffffffffffffffffffffffffffffffffff167f6eb3b9e9b53f6121601ca14ab3aa367f50ddeb99803e39f569b28817dff1292d8360405161062e9190611673565b60405180910390a350505b60018161064691906116aa565b9050610369565b505050565b61065a610850565b73ffffffffffffffffffffffffffffffffffffffff163373ffffffffffffffffffffffffffffffffffffffff16141561069b5761069681610ea1565b6106a5565b6106a481610fcc565b5b50565b6106b0611247565b600760008373ffffffffffffffffffffffffffffffffffffffff1673ffffffffffffffffffffffffffffffffffffffff16815260200190815260200160002060405180608001604052908160008201548152602001600182015481526020016002820160009054906101000a900460ff161515151581526020016003820154815250509050919050565b610742610e99565b73ffffffffffffffffffffffffffffffffffffffff16610760610850565b73ffffffffffffffffffffffffffffffffffffffff16146107b6576040517f08c379a00000000000000000000000000000000000000000000000000000000081526004016107ad906115d8565b60405180910390fd5b6107c06000611183565b565b600580546107cf906117af565b80601f01602080910402602001604051908101604052809291908181526020018280546107fb906117af565b80156108485780601f1061081d57610100808354040283529160200191610848565b820191906000526020600020905b81548152906001019060200180831161082b57829003601f168201915b505050505081565b60008060009054906101000a900473ffffffffffffffffffffffffffffffffffffffff16905090565b600760003373ffffffffffffffffffffffffffffffffffffffff1673ffffffffffffffffffffffffffffffffffffffff16815260200190815260200160002060020160009054906101000a900460ff16156108d357600080fd5b6108db610850565b73ffffffffffffffffffffffffffffffffffffffff163373ffffffffffffffffffffffffffffffffffffffff161415610949576040517f08c379a000000000000000000000000000000000000000000000000000000000815260040161094090611638565b60405180910390fd5b60015434101561098e576040517f08c379a000000000000000000000000000000000000000000000000000000000815260040161098590611618565b60405180910390fd5b6000600760003373ffffffffffffffffffffffffffffffffffffffff1673ffffffffffffffffffffffffffffffffffffffff1681526020019081526020016000209050600154600360008282546109e591906116aa565b92505081905550600154346109fa9190611700565b816001016000828254610a0d91906116aa565b9250508190555060018160020160006101000a81548160ff021916908315150217905550428160000181905550428160030181905550600160046000828254610a5691906116aa565b92505081905550423373ffffffffffffffffffffffffffffffffffffffff167ff94991dcbea6e8ac439cbc93bd9c62a4d39f04e0ad656df9a703f13552c2787f34604051610aa49190611673565b60405180910390a3600660009054906101000a900473ffffffffffffffffffffffffffffffffffffffff1673ffffffffffffffffffffffffffffffffffffffff16635c808c0a336040518263ffffffff1660e01b8152600401610b07919061153b565b600060405180830381600087803b158015610b2157600080fd5b505af1158015610b35573d6000803e3d6000fd5b5050505050565b60035481565b600760003373ffffffffffffffffffffffffffffffffffffffff1673ffffffffffffffffffffffffffffffffffffffff16815260200190815260200160002060020160009054906101000a900460ff16610bd1576040517f08c379a0000000000000000000000000000000000000000000000000000000008152600401610bc8906115b8565b60405180910390fd5b34600760003373ffffffffffffffffffffffffffffffffffffffff1673ffffffffffffffffffffffffffffffffffffffff1681526020019081526020016000206001016000828254610c2391906116aa565b92505081905550565b60045481565b610c3a610e99565b73ffffffffffffffffffffffffffffffffffffffff16610c58610850565b73ffffffffffffffffffffffffffffffffffffffff1614610cae576040517f08c379a0000000000000000000000000000000000000000000000000000000008152600401610ca5906115d8565b60405180910390fd5b600073ffffffffffffffffffffffffffffffffffffffff168173ffffffffffffffffffffffffffffffffffffffff161415610d1e576040517f08c379a0000000000000000000000000000000000000000000000000000000008152600401610d1590611598565b60405180910390fd5b610d2781611183565b50565b600760003373ffffffffffffffffffffffffffffffffffffffff1673ffffffffffffffffffffffffffffffffffffffff16815260200190815260200160002060020160009054906101000a900460ff16610db9576040517f08c379a0000000000000000000000000000000000000000000000000000000008152600401610db0906115b8565b60405180910390fd5b6000600760003373ffffffffffffffffffffffffffffffffffffffff1673ffffffffffffffffffffffffffffffffffffffff16815260200190815260200160002090506000816001015490506000826001018190555060008260020160006101000a81548160ff021916908315150217905550600160046000828254610e3f9190611700565b92505081905550423373ffffffffffffffffffffffffffffffffffffffff167fbd2f3340a1f78833d0b27aae4933bdc20c8e2e3b024b090acff471f6a834ae2783604051610e8d9190611673565b60405180910390a35050565b600033905090565b610ea9610e99565b73ffffffffffffffffffffffffffffffffffffffff16610ec7610850565b73ffffffffffffffffffffffffffffffffffffffff1614610f1d576040517f08c379a0000000000000000000000000000000000000000000000000000000008152600401610f14906115d8565b60405180910390fd5b600354811115610f62576040517f08c379a0000000000000000000000000000000000000000000000000000000008152600401610f5990611578565b60405180910390fd5b8060036000828254610f749190611700565b92505081905550610f83610850565b73ffffffffffffffffffffffffffffffffffffffff166108fc829081150290604051600060405180830381858888f19350505050158015610fc8573d6000803e3d6000fd5b5050565b600760003373ffffffffffffffffffffffffffffffffffffffff1673ffffffffffffffffffffffffffffffffffffffff16815260200190815260200160002060020160009054906101000a900460ff1661105b576040517f08c379a0000000000000000000000000000000000000000000000000000000008152600401611052906115b8565b60405180910390fd5b600760003373ffffffffffffffffffffffffffffffffffffffff1673ffffffffffffffffffffffffffffffffffffffff168152602001908152602001600020600101548111156110e0576040517f08c379a00000000000000000000000000000000000000000000000000000000081526004016110d7906115f8565b60405180910390fd5b80600760003373ffffffffffffffffffffffffffffffffffffffff1673ffffffffffffffffffffffffffffffffffffffff16815260200190815260200160002060010160008282546111329190611700565b925050819055503373ffffffffffffffffffffffffffffffffffffffff166108fc829081150290604051600060405180830381858888f1935050505015801561117f573d6000803e3d6000fd5b5050565b60008060009054906101000a900473ffffffffffffffffffffffffffffffffffffffff169050816000806101000a81548173ffffffffffffffffffffffffffffffffffffffff021916908373ffffffffffffffffffffffffffffffffffffffff1602179055508173ffffffffffffffffffffffffffffffffffffffff168173ffffffffffffffffffffffffffffffffffffffff167f8be0079c531659141344cd1fd0a4f28419497f9722a3daafe3b4186f6b6457e060405160405180910390a35050565b60405180608001604052806000815260200160008152602001600015158152602001600081525090565b60008135905061128081611a2d565b92915050565b60008083601f84011261129857600080fd5b8235905067ffffffffffffffff8111156112b157600080fd5b6020830191508360208202830111156112c957600080fd5b9250929050565b6000813590506112df81611a44565b92915050565b6000602082840312156112f757600080fd5b600061130584828501611271565b91505092915050565b6000806020838503121561132157600080fd5b600083013567ffffffffffffffff81111561133b57600080fd5b61134785828601611286565b92509250509250929050565b60006020828403121561136557600080fd5b6000611373848285016112d0565b91505092915050565b61138581611734565b82525050565b61139481611746565b82525050565b60006113a58261168e565b6113af8185611699565b93506113bf81856020860161177c565b6113c88161183f565b840191505092915050565b60006113e0602383611699565b91506113eb82611850565b604082019050919050565b6000611403602683611699565b915061140e8261189f565b604082019050919050565b6000611426601783611699565b9150611431826118ee565b602082019050919050565b6000611449602083611699565b915061145482611917565b602082019050919050565b600061146c602e83611699565b915061147782611940565b604082019050919050565b600061148f602883611699565b915061149a8261198f565b604082019050919050565b60006114b2602883611699565b91506114bd826119de565b604082019050919050565b6080820160008201516114de600085018261151d565b5060208201516114f1602085018261151d565b506040820151611504604085018261138b565b506060820151611517606085018261151d565b50505050565b61152681611772565b82525050565b61153581611772565b82525050565b6000602082019050611550600083018461137c565b92915050565b60006020820190508181036000830152611570818461139a565b905092915050565b60006020820190508181036000830152611591816113d3565b9050919050565b600060208201905081810360008301526115b1816113f6565b9050919050565b600060208201905081810360008301526115d181611419565b9050919050565b600060208201905081810360008301526115f18161143c565b9050919050565b600060208201905081810360008301526116118161145f565b9050919050565b6000602082019050818103600083015261163181611482565b9050919050565b60006020820190508181036000830152611651816114a5565b9050919050565b600060808201905061166d60008301846114c8565b92915050565b6000602082019050611688600083018461152c565b92915050565b600081519050919050565b600082825260208201905092915050565b60006116b582611772565b91506116c083611772565b9250827fffffffffffffffffffffffffffffffffffffffffffffffffffffffffffffffff038211156116f5576116f46117e1565b5b828201905092915050565b600061170b82611772565b915061171683611772565b925082821015611729576117286117e1565b5b828203905092915050565b600061173f82611752565b9050919050565b60008115159050919050565b600073ffffffffffffffffffffffffffffffffffffffff82169050919050565b6000819050919050565b60005b8381101561179a57808201518184015260208101905061177f565b838111156117a9576000848401525b50505050565b600060028204905060018216806117c757607f821691505b602082108114156117db576117da611810565b5b50919050565b7f4e487b7100000000000000000000000000000000000000000000000000000000600052601160045260246000fd5b7f4e487b7100000000000000000000000000000000000000000000000000000000600052602260045260246000fd5b6000601f19601f8301169050919050565b7f50617472656f6e3a206f776e6572207769746864726177696e6720746f6f206d60008201527f7563680000000000000000000000000000000000000000000000000000000000602082015250565b7f4f776e61626c653a206e6577206f776e657220697320746865207a65726f206160008201527f6464726573730000000000000000000000000000000000000000000000000000602082015250565b7f50617472656f6e3a206e6f742073756273637269626564000000000000000000600082015250565b7f4f776e61626c653a2063616c6c6572206973206e6f7420746865206f776e6572600082015250565b7f50617472656f6e3a2063616e6e6f74207769746864726177206d6f726520746860008201527f616e207468652062616c616e6365000000000000000000000000000000000000602082015250565b7f50617472656f6e3a206d757374207375627363726962652077697468206d696e60008201527f696d756d20666565000000000000000000000000000000000000000000000000602082015250565b7f50617472656f6e3a206f776e65722063616e6e6f742063616c6c20746869732060008201527f66756e6374696f6e000000000000000000000000000000000000000000000000602082015250565b611a3681611734565b8114611a4157600080fd5b50565b611a4d81611772565b8114611a5857600080fd5b5056fea264697066735822122060eb352304ab81132545fa2c2d89747f777c6dd447c713e526a477684ad3e3d064736f6c63430008040033a264697066735822122098cba3023eb246cc7a30ba499e781cb1479071944b9fd19a3a44b2b6e3ff2b7e64736f6c63430008040033",
  "linkReferences": {},
  "deployedLinkReferences": {}
}